:020000040800F2
:10000000000002203D4C0008410A0008430A000895
:10001000450A0008470A0008490A000800000000D5
:100020000000000000000000000000004B0A000873
:100030004D0A0008000000004F0A0008510A00089D
:100040008D4C00088D4C00088D4C00088D4C00082C
:100050008D4C00088D4C00088D4C00088D4C00081C
:100060008D4C00088D4C00088D4C00088D4C00080C
:100070008D4C00088D4C00088D4C00088D4C0008FC
:100080008D4C00088D4C00088D4C00088D4C0008EC
:100090008D4C00088D4C00088D4C00088D4C0008DC
:1000A0008D4C00088D4C00088D4C00088D4C0008CC
:1000B0008D4C00088D4C00088D4C00088D4C0008BC
:1000C0008D4C00088D4C00088D4C00088D4C0008AC
:1000D0008D4C00088D4C0008590A00088D4C000812
:1000E0008D4C00088D4C00088D4C00088D4C00088C
:1000F0008D4C00088D4C00088D4C00088D4C00087C
:100100008D4C00088D4C00088D4C00088D4C00086B
:100110008D4C00088D4C00088D4C00088D4C00085B
:100120008D4C00088D4C00088D4C00088D4C00084B
:100130008D4C00088D4C00088D4C00088D4C00083B
:100140008D4C00088D4C00088D4C0008690A000891
:100150008D4C00088D4C00088D4C00088D4C00081B
:100160008D4C00088D4C00088D4C00088D4C00080B
:100170008D4C00088D4C00088D4C000800000000DC
:080180008D4C00088D4C0008B5
:1001880010B5054C237833B9044B13B10448AFF3C9
:1001980000800123237010BD9000002000000000A3
:1001A800984E000808B5034B1BB103490348AFF349
:1001B800008008BD0000000094000020984E000850
:1001C80053B94AB9002908BF00281CBF4FF0FF31B6
:1001D8004FF0FF3000F072B9ADF1080C6DE904CEB4
:1001E80000F006F8DDF804E0DDE9022304B070470A
:1001F8002DE9F047089E04468846002B4BD18A42D9
:10020800154667D9B2FA82F24AB1C2F1200701FA5B
:1002180002F320FA07F7954047EA030894404FEAAB
:10022800154E230CB8FBFEF71FFA85FC0EFB17884A
:1002380043EA084307FB0CF1994209D9EB1807F187
:10024800FF3080F01B81994240F21881023F2B4415
:100258005B1AA4B2B3FBFEF00EFB103344EA03446E
:1002680000FB0CFCA44509D92C1900F1FF3380F0E0
:100278000781A44540F2048102382C4440EA074033
:10028800A4EB0C0400271EB1D4400023C6E90043A8
:100298003946BDE8F0878B4209D9002E00F0EB8083
:1002A8000027C6E9000138463946BDE8F087B3FAA9
:1002B80083F7002F47D18B4202D3824200F2FA80A3
:1002C800841A61EB030301209846002EE0D0C6E9AA
:1002D8000048DDE702B9FFDEB2FA82F2002A40F0F8
:1002E8008F80491B4FEA154E1FFA85F80127B1FB8D
:1002F800FEFC230C0EFB1C1143EA014308FB0CF126
:10030800994207D9EB180CF1FF3002D2994200F25A
:10031800CD808446591AA3B2B1FBFEF00EFB10142F
:1003280043EA044408FB00F8A04507D92C1900F15A
:10033800FF3302D2A04500F2B6801846A4EB0804A9
:1003480040EA0C409FE7C7F1200CBB4022FA0CFEA4
:100358004EEA030E01FA07F420FA0CF521FA0CF321
:100368004FEA1E482543B3FBF8F92C0C08FB193358
:100378001FFA8EFA44EA034309FB0AF49C4202FA84
:1003880007F200FA07F10BD91EEB030309F1FF305E
:1003980080F087809C4240F28480A9F1020973446E
:1003A8001B1BADB2B3FBF8F008FB103345EA03445E
:1003B80000FB0AFAA24508D91EEB040400F1FF333A
:1003C8006BD2A24569D90238744440EA0940A0FBBF
:1003D8000289A4EB0A044C45C2464B4654D351D07B
:1003E800002E69D0B1EB0A0564EB030404FA0CFC97
:1003F800FD40FC404CEA0505C6E90054002747E7E4
:10040800C2F1200320FA03F7954001FA02F021FA1D
:1004180003F34FEA154E3843010CB3FBFEF71FFAFE
:1004280085F80EFB173341EA034107FB08F38B42BB
:1004380004FA02F407D9691807F1FF3C2FD28B425E
:100448002DD9023F2944CB1A81B2B3FBFEF00EFB33
:10045800103341EA034100FB08F38B4207D96918BE
:1004680000F1FF3C17D28B4215D902382944C91A2A
:1004780040EA07473BE73746304609E70746E7E6DD
:100488001846FBE64145ABD2B8EB020A69EB0E020F
:1004980001381346A4E76046E9E7184695E767463A
:1004A800D1E781467CE702382C4447E7ACF1020CDF
:1004B8002B442FE7384608E73746E9E6704700BF80
:1004C80072B6FEE700B599B0302200210DEB0200AC
:1004D80004F00EFC00230793089309930A930B93E7
:1004E80003930493059306930193274A116C41F0F3
:1004F80080511164126C02F080520192019A0293A9
:10050800224B1A6842F480421A601B6803F4804345
:100518000293029B01230C934FF480330D93022323
:1005280012934FF480021392082214924FF4A87287
:1005380015921693072317930CA801F0D1FDE8B97B
:100548000F23079302230893002309934FF4A05322
:100558000A934FF480530B93052107A802F022F861
:1005680070B901230393C02304930223059303A8BE
:1005780002F0EEF830B919B05DF804FBFFF7A0FF00
:10058800FFF79EFFFFF79CFF003802400070004015
:1005980008B502F04FFBFFF795FF00F019F800F0DF
:1005A800DDF800F031F900F099F900F0EDF900F00C
:1005B80095FA00F0B3FA4FF6FF730C22024903488C
:1005C80003F038F9F5E700BFB04E0008B401002089
:1005D8002DE9F04F8DB000240794089409940A94EB
:1005E8000B940194564B1A6B42F010021A631A6B63
:1005F80002F010020192019A02941A6B42F004026E
:100608001A631A6B02F004020292029A03941A6B9C
:1006180042F080021A631A6B02F080020392039A76
:1006280004941A6B42F001021A631A6B02F0010279
:100638000492049A05941A6B42F002021A631A6B28
:1006480002F002020592059A06941A6B42F008021B
:100658001A631B6B03F008030693069B394E224668
:100668000821304602F03CFADFF8E09001221146FA
:10067800484602F035FADFF8D88022464FF21001DA
:10068800404602F02DFA0827079701250895099496
:100698000A9407A9304602F03FF90795089509948E
:1006A8000A9407A9484602F037F9079702270897DE
:1006B80009940A944FF0050ACDF82CA007A94846DA
:1006C80002F02AF90795DFF88C90CDF8209009946C
:1006D80007A91D4802F020F90423079308940994F8
:1006E800DFF874B007A9584602F016F94FF4806392
:1006F8000793089709940A94CDF82CA007A958469F
:1007080002F00AF94FF210030793089509940A9426
:1007180007A9404602F000F920230793089409949A
:1007280007A9404602F0F8F80797CDF820900994F9
:1007380007A9304602F0F0F80DB0BDE8F08F00BF11
:100748000038024000100240000002400008024049
:10075800000C0240000012100004024008B50B48CB
:100768000B4B03600B4B436000238360C3604FF463
:100778008042026143618361C361036202F09AFAB5
:1007880000B908BDFFF79CFEFBE700BFC0000020D2
:1007980000540040A086010030B589B000230393BF
:1007A80004930593069307930268144B9A4201D069
:1007B80009B030BD00250195114C236B43F00203AD
:1007C8002363236B03F002030193019B4FF410731F
:1007D800039312230493012305930423079303A986
:1007E800084802F099F80295236C43F40013236437
:1007F800236C03F400130293029BD9E700540040D2
:10080800003802400004024008B50B480B4B036057
:100818004FF40072426000238360C3600261084A9B
:1008280042618361C361036202F01EFB00B908BD27
:10083800FFF746FEFBE700BF14010020003C004024
:100848000077010070B588B00023039304930593E3
:100858000693079302681E4B9A4201D008B070BDF8
:100868000024009403F5FE331A6C42F400421A6423
:100878001A6C02F400420092009A01941A6B42F03A
:1008880001021A631A6B02F001020192019A0294A2
:100898001A6B42F004021A631B6B03F00403029301
:1008A800029B10230393022604960625079503A9A5
:1008B800084802F031F84FF4A453039304960594C2
:1008C8000694079503A9044802F026F8C6E700BF76
:1008D800003C0040000002400008024008B50D48F6
:1008E8000D4B03604FF48273436000238360C36041
:1008F800036143614FF400728261C3610362436222
:1009080083620A23C36202F0A7FD00B908BDFFF79E
:10091800D7FDFBE75C0100200030014000B589B03D
:100928000023039304930593069307930268144BDB
:100938009A4202D009B05DF804FB0021019103F549
:1009480084335A6C42F480525A645A6C02F48052CE
:100958000192019A02911A6B42F001021A631B6B11
:1009680003F001030293029BE02303930223049301
:100978000523079303A9034801F0CEFFDAE700BF78
:10098800003001400000024008B50A480A4B0360E5
:100998004FF4E133436000238360C36003610C229A
:1009A80042618361C36102F016FF00B908BDFFF719
:1009B80087FDFBE7B40100200044004010B588B073
:1009C8000023039304930593069307930268184B37
:1009D8009A4201D008B010BD0024019403F5FA33FF
:1009E8001A6C42F400321A641A6C02F40032019252
:1009F800019A02941A6B42F001021A631B6B03F00E
:100A080001030293029B0C23039302230493032301
:100A180006930723079303A9064801F07DFF2246A2
:100A28002146262002F088F8262002F0B9F8D1E7FE
:100A38000044004000000240FEE7FEE7FEE7FEE754
:100A4800FEE770477047704708B502F00DF908BD1A
:100A580008B5024802F0BEFF08BD00BFB40100207F
:100A680008B5024800F097FE08BD00BFCC0500207D
:100A780000B583B0002100910C4B5A6C42F48042BF
:100A88005A645A6C02F480420092009A01911A6CDE
:100A980042F080521A641B6C03F080530193019B4F
:100AA800072002F037F803B05DF804FB0038024075
:100AB80004290CD0052902D0022904D07047064B1E
:100AC80003221A707047044B02221A707047024BB7
:100AD80001221A70F2E700BFAC00002008B501221D
:100AE8000B490C4803F092F948B90B49094803F03F
:100AF800ACF938B9074803F0EBF930B908BDFFF78E
:100B0800DFFCF2E7FFF7DCFCF4E7FFF7D9FCF5E7D9
:100B1800B90A0008F40100200C00002008B50248BA
:100B280003F0E0F908BD00BFF4010020F0B589B07A
:100B38000023039304930593069307930368B3F183
:100B4800A04F01D009B0F0BD002501951B4C236BC7
:100B580043F001032363236B03F001030193019B1B
:100B680008AE4FF4007346F8143D154F3146384629
:100B780001F0D2FE4FF4E05303930223049305954A
:100B880006950A2307933146384601F0C5FE636B84
:100B980043F0800363630295636C43F480436364AA
:100BA800636C03F480430293029B2A462946432040
:100BB80001F0C2FF432001F0F3FFC3E70038024011
:100BC8000000024008B5D0F8C00203F0CDFA08BD15
:100BD80008B5D0F8C00203F0D8FA08BD08B5D0F8B7
:100BE800C00203F0DCFA08BD704708B5D0F8C002AF
:100BF80003F0C3FA08BD08B5D0F8C00203F0C1FA83
:100C080008BD000090F8CC33012B01D000207047BC
:100C180010B504460F48C0F8C042C4F8D0034FF0DE
:100C2800A0430360082383600123C360002303619A
:100C380002228261C36100F051F940B9054800F011
:100C480087FE0146204603F08CFA002010BDFFF70E
:100C580037FCF3E7CC05002008B5D0F8D00300F046
:100C68007CFE18B1022803D0012008BD0020FCE753
:100C78000220FAE708B5D0F8D00300F063FE08BDFB
:100C880008B5D0F8D00300F056FE08BD08B590F8B6
:100C9800CC33012B04D0C82001F0F8FF002008BD98
:100CA800084600F06FF8F6E710B4D0F8D03301EB3F
:100CB8008104E0000446184490F83B0048B901EB71
:100CC8008101C800034483F8512000205DF8044BDB
:100CD8007047234483F85020F7E708B501F0D6FFA2
:100CE80008BD18B1022803D00220704700207047C1
:100CF8000120704708B5D0F8D00300F0EFFDFFF7EA
:100D0800F0FF08BD08B5D0F8D00300F0FDFDFFF7EF
:100D1800E8FF08BD08B5D0F8D00300F007FEFFF7DC
:100D2800E0FF08BD10B584B0D0F8D003BDF820406E
:100D380002949DF81C4001949DF81840009400F01E
:100D48006BF8FFF7CEFF04B010BD08B5D0F8D0039C
:100D580000F0B2F8FFF7C5FF08BD10B584B0D0F8B1
:100D6800D0039DF824400394BDF820400294079CCA
:100D780001949DF81840009400F0FAF8FFF7B1FFCD
:100D880004B010BD08B528B100220121024801F0C5
:100D9800A7FE08BD0122F8E700080240F8B506687A
:100DA800346A04F00F07C4F34343C4F30A14022B54
:100DB8002ED16CB307EB8702D3000344596C39B3C7
:100DC80005462246304600F08FFEBA003A44D3006A
:100DD8002B445A6C22445A64DA6C2244DA6406EBD7
:100DE8004713D3F810150B4A0A408AB1D3F80025E7
:100DF80022F0804242F00042C3F80025BB00D91916
:100E0800CA002A4492F8503083F0010382F8503027
:100E1800F8BD00BF0000F81FF0B585B09DF8285058
:100E28009DF82C60BDF8307090F8B842012C41D084
:100E3800012480F8B8424FEA810C8C444FEACC0474
:100E480004444FF0000C84F83DC084F83830A4F80E
:100E5800407084F8391084F83F6002F07F0C84F801
:100E68003AC012F0800F1BD101EB810C4FEACC0481
:100E780004444FF0000C84F83BC0044601EB810C9D
:100E88004FEACC00204480F83C5002970196009528
:100E9800206800F035FF002384F8B83205B0F0BDB3
:100EA80001EB810C4FEACC0404444FF0010C84F8A8
:100EB8003BC0E2E70220F1E790F8B832012B0BD0F3
:100EC80010B50446012380F8B832006800F0A1FF8D
:100ED800002084F8B80210BD02207047002845D0D1
:100EE800F0B58BB00646046890F8B932002B38D0BC
:100EF800032386F8B932E36B13F4807F01D1002312
:100F08003361306800F097FD344654F810CB6D46D5
:100F18000FCC0FC50FCC0FC594E8030085E803007C
:100F2800371D97E80E00604600F03AFD0121306851
:100F380000F087FD344654F810CB6D460FCC0FC532
:100F48000FCC0FC594E8030085E8030097E80E006E
:100F5800604600F047FE012386F8B93200200BB046
:100F6800F0BD80F8B832FFF7E1FDC1E70120704716
:100F7800F8B59DF81870BDF820608D000D44EC00A0
:100F8800044484F83B2084F83F308FB98D000D4429
:100F9800EC000444032584F842509DF8245084F85A
:100FA8003D50032B00F29680DFE803F00A8D2F5E98
:100FB80001EB8105EC000444022584F84250F0E777
:100FC800012F40F08780002A40F0848036B901EB79
:100FD8008102D3000344012283F8512001EB8102EE
:100FE800D300034493F851303BB901EB8102D3009D
:100FF8000344002283F842206CE001EB8102D30015
:101008000344022283F8422064E0B2B901EB810272
:10101800D300034493F851303BB901EB8102D3006C
:101028000344002283F8422054E001EB8102D300FC
:101038000344022283F842204CE001EB8102D300F2
:10104800034493F850303BB901EB8102D3000344C9
:10105800002283F842203DE001EB8102D3000344E3
:10106800022283F8422035E0B2B901EB8102D300B5
:10107800034493F851303BB901EB8102D300034498
:10108800002283F8422025E001EB8102D3000344CB
:10109800022283F842201DE001EB8102D3000344C1
:1010A80093F850303BB901EB8102D300034400228E
:1010B80083F842200EE001EB8102D30003440222B0
:1010C80083F8422006E001EB8102D30003440022AA
:1010D80083F842208A005418E3000344079C5C64A8
:1010E8009E64002483F85C40DC6483F8391083F83C
:1010F8005D401144CB0003F13801027C01440068D3
:1011080000F002FFF8BD30B583B005460468D4F896
:1011180040340193D4F840340093009B23F02E030D
:101128000093019B13F0020F07D0019B13F0010FEE
:1011380025D1009B43F002030093019B13F0080F95
:1011480010D0009B43F008030093019B13F0040F99
:101158002DD0AB69022B15D0EB68012B22D0284685
:10116800FFF743FD019B13F0200F03D0009B43F0D2
:1011780020030093009BC4F8403403B030BDFFF750
:1011880027FDD6E7019B03F4C023B3F5802F04D0D5
:101198000121286800F0C4FCE1E70221286800F07A
:1011A800BFFCDCE74EF66022C4F80424D7E72846E3
:1011B800FFF721FDD6E7F8B506460D46076807EBA9
:1011C800411707F5A064A36813F0040F40D0042367
:1011D800A360E36843F00203E360A36813F4007FAD
:1011E80040F08280A36813F0010F00F0B0803369EB
:1011F8004BB1AA002A44D30033449A6C2169C1F345
:101208001201521ADA64AA002A44D3003344012294
:1012180083F85D2000219965A26093F83F30002B88
:101228006ED0022B6CD0032B7FD0012B72D1AA0079
:101238002A44D3003344012283F85C2093F85010E9
:10124800514083F8501029463046FFF7CDFC61E045
:10125800A36813F4807F06D1A36813F0200F14D07D
:101268002023A360B9E74FF48073A36001EB8102E8
:10127800D3000344072283F85D20E36843F00203A8
:10128800E360006800F0C5FDA7E7A36813F0080F46
:1012980017D1A36813F4806F9FD0E36843F002036B
:1012A800E360006800F0B5FD1023A36005EB85023C
:1012B800D3003344082283F85D204FF48063A36091
:1012C8008BE7E36843F00203E36001EB8102D3009C
:1012D8000344052283F85D201023A3600823A3603C
:1012E800006800F096FD78E7E36843F00203E360E6
:1012F8002946306800F08DFD4FF40073A36013E0B9
:10130800E36843F00203E3602946306800F081FD9A
:101318001023A360AB005919CA00324492F8503028
:1013280083F0010382F85030F8BDD7F8003543F058
:101338000053C7F8003505EB8502D300334401227A
:1013480083F85C2029463046FFF74EFCE2E7A368A5
:1013580013F0020F6FD0E36823F00203E36005EB9C
:101368008502D300334493F85D30012B14D0052B4C
:1013780026D0062B2CD0082B2AD0032B4BD0072B9A
:1013880011D1AA002A44D30033449A6D01329A65D8
:10139800042283F85C2006E005EB8502D300334481
:1013A800012283F85C200223A36005EB8502D300A9
:1013B800334493F85C2029463046FFF715FCB3E721
:1013C80005EB8502D3003344052283F85C20EAE765
:1013D800AA002A44D30033449A6D01329A65032A3D
:1013E80011D9AA002A44D300334400229A65042262
:1013F80083F85C20D7F8003523F0804343F000439E
:10140800C7F80035CFE705EB8502D3003344022245
:1014180083F85C20EEE705EB8502D3003344022213
:1014280083F85C20D7F8003523F0804343F000436D
:10143800C7F80035B7E7A36813F0800F1AD1A3687F
:1014480013F0100F3FF470AF05EB8502D30033445F
:1014580093F83F30032B25D00BB1022B07D105EBB6
:101468008502D300334400229A6533694BB31023B5
:10147800A36059E7E36843F00203E360AB0059193E
:10148800CA003244916D013191652B44DA0032442F
:10149800062382F85D302946306800F0BAFC8023C4
:1014A800A36041E705EB8502D300334400229A6527
:1014B800E36843F00203E3602946306800F0A9FCC2
:1014C800D5E705EB8502D3003344032283F85D207A
:1014D800E36843F00203E3602946306800F099FCB2
:1014E800C5E7F8B5036803EB411303F5A064A268E8
:1014F80012F0040F24D10E460546A26812F0200F00
:1015080025D02023A36001EB8102D3001A460344AF
:1015180093F83D30012B19D18B000244002182F849
:101528003D103344DA000244022382F85C30E36859
:1015380043F00203E3603146006800F06AFC05E00E
:101548000423A360E36843F00203E360F8BDA268E4
:1015580012F0400F34D1A26812F4007F4AD1A26879
:1015680012F0010F51D1A26812F0080F62D1A268DF
:1015780012F0100F6FD08A000A44D30003440022EF
:101588009A65032283F85D2093F83D306BB901EB2F
:101598008102D300034493F83C3033B901EB810254
:1015A800D3000344012283F83D20E36843F002039B
:1015B800E3603146286800F02CFC1023A360C5E7DF
:1015C8008B005918CA000244042182F85D100121D9
:1015D80082F83D103344DA00024400239365E3683F
:1015E80043F00203E3603146006800F012FC402338
:1015F800A360ABE7E36843F00203E360006800F030
:1016080008FC4FF40073A360A0E78F007A18D3009A
:10161800034400229A65E36843F00203E36000682C
:1016280000F0F7FB0123A360B919C800284480F82B
:101638005D308BE70823A360E36843F00203E360AF
:10164800006800F0E6FB06EB8601C8002844052385
:1016580080F85D307AE7A26812F0800F39D1A2686D
:1016680012F4806F46D1A26812F0020F3FF46EAFF9
:10167800E26822F00202E26001EB8101CA00114631
:10168800024492F85D20012A48D0032A5AD0042A3D
:101698006CD0052A72D0062A01D0082A59D1B10087
:1016A8003144CA002A44916D0131916503296BD9EF
:1016B800282202FB065200219165042182F85C1061
:1016C800D3F8002522F0804242F00042C3F80025FA
:1016D8003FE0E36843F00203E360006800F099FB31
:1016E80006EB8601CB002B44062283F85D2080237D
:1016F800A3602BE7E36843F00203E360006800F0AF
:1017080088FB1023A3604FF48063A36006EB860177
:10171800CB002B44082283F85D2017E70B460344CF
:10172800012283F85C2093F83F30023BDBB29342FE
:101738000FD80B46034493F8512082F0010283F836
:10174800512006E006EB8602D3000344022283F808
:101758005C200223A36006EB8602D3002B4493F897
:101768005C2031462846FFF73FFAEFE606EB860293
:10177800D3000344022283F85C20EAE7282303FB12
:10178800060383F85C20E4E7282202FB06520221C4
:1017980082F85C1094E7F8B504460568284600F01E
:1017A800BBF9012800D0F8BD206800F0B1F9002885
:1017B800F9D0206800F0ACF910F4001F03D02368BA
:1017C8004FF400125A61206800F0A2F910F4801F4B
:1017D80003D023684FF480125A61206800F098F90A
:1017E80010F0806F03D023684FF080625A61206840
:1017F80000F08EF910F0020F02D0236802225A611D
:10180800206800F085F910F0005F08D023684FF0D9
:1018180000525A61D5F8403413F0010F25D02068E2
:1018280000F076F910F0807F27D1206800F070F979
:1018380010F0080F25D1206800F06AF910F0007F39
:1018480026D1206800F064F910F0100FABD02268A0
:10185800936923F0100393612046FFF79FFA2268EB
:10186800936943F0100393619DE72046FFF7B6F9AB
:101878000121206800F054F9D1E72046FFF743FC26
:10188800D3E72046FFF79EF9236808225A61D2E77A
:10189800206800F0B9FA0746002604E0F1B22046B5
:1018A800FFF71FFE0136A368B34212D906F00F03F3
:1018B80027FA03F313F0010FF4D005EB4613D3F81E
:1018C800003513F4004FE9D0F1B22046FFF773FC5E
:1018D800E8E723684FF000725A61B2E738B590F82C
:1018E800B832012B0ED00446012580F8B8520068A2
:1018F80000F09BF82946206800F051F9002084F890
:10190800B80238BD0220FCE790F8B832012B0BD0A2
:1019180010B50446012380F8B832006800F0A0FB37
:10192800002084F8B80210BD0220704708B500688E
:1019380000F016F908BD01EB8101CB00184490F8BE
:101948005C00704701EB8101CB001844C06C704704
:1019580008B5006800F0CFF908BD08B5006800F0C8
:10196800BFF908BD002301330C4A934211D802691C
:10197800002AF8DA036943F0010303610023013305
:10198800064A934207D8026912F0010FF7D10020E6
:101998007047032070470320704700BF400D0300C5
:1019A80084B010B5044603A880E80E00089B012BFC
:1019B8001FD1A36B23F48033A363E36823F4840368
:1019C80023F04003E360E36823F44013E3600F9BD4
:1019D800012B09D02046FFF7C5FF069B012B1BD022
:1019E800BDE8104004B07047E36843F48013E36037
:1019F800F0E7E36843F04003E3602046FFF7B2FFF7
:101A08000C9B23B9A36B43F48033A363E5E7A36B73
:101A180023F48033A363E0E7A36843F00603A360DD
:101A2800A36843F02003A360DAE7836843F0010367
:101A3800836000207047836823F0010383600020DF
:101A4800704708B5C36823F0C043C360012909D0B3
:101A580069B9C36843F08043C360322001F016F9C6
:101A6800002008BDC36843F00053C360F5E70120B8
:101A7800F7E70000890141F02001016100230133EB
:101A8800054A934205D8026912F0200FF7D10020C9
:101A980070470320704700BF400D03001023036107
:101AA80000230133054A934205D8026912F0100F4A
:101AB800F7D1002070470320704700BF400D030096
:101AC80070B49DF80C4064B903339D0807E000EB3F
:101AD800023303F5805351F8046B1E600134AC42A5
:101AE800F5D3002070BC704703329208002393425C
:101AF8000CD210B400F58054246841F8044B01332B
:101B08009342F7D308465DF8044B70470846704780
:101B18004269806910407047406900F001007047D1
:101B280010B400F58064D0F8003423F00303C0F843
:101B38000034D0F8003401F003021343C0F8003435
:101B4800012905D0022907D000205DF8044B704711
:101B58004BF680336360F7E741F270736360F3E735
:101B680030B583B0044600250195D0F84034019380
:101B7800019B23F02E030193019B43F48073C0F86B
:101B88004034642001F082F8019B23F48073C4F888
:101B980040340A2001F07AF8284603B030BD82B0FC
:101BA80000230193D0F840340193019B23F02E03C6
:101BB8000193019B13F4805F01D101290CD0019B93
:101BC80013F4805F05D021B9019B23F48053C0F83A
:101BD8004034002002B07047019B43F48053C0F8A2
:101BE8004034ECE784B038B5044605A880E80E0018
:101BF80025460023C4F8003EA36B43F40013A363F7
:101C0800A36B23F40023A363A36B23F48023A363B0
:101C1800E36B13F4807F10D0079B012B06D0D4F818
:101C2800003423F00403C4F800340CE0D4F8003482
:101C380043F00403C4F8003405E0D4F8003423F07A
:101C48000403C4F8003410212046FFF713FF204690
:101C5800FFF724FF002209E005EB42134FF0FF31A4
:101C6800C3F808150021C3F80C150132069B9342EE
:101C7800F2D801212046FFF792FFC82001F006F8AC
:101C88000023A3614FF0FF336361E36B13F4807F9C
:101C980017D04FF40073636203F18073A3620D4B96
:101CA800C4F80031089B1BB9A36943F01003A36172
:101CB800A269094B1343A3610020BDE8384004B072
:101CC80070478023636203F5C003A362034BC4F823
:101CD8000031E7E70003E000080020A3E00040002F
:101CE80082B000230193D0F8403401930198C0F3E7
:101CF800414002B0704700F58060806880B270474C
:101D0800F0B506469DF8184000EB411505F5A060B2
:101D18004FF0FF378760032C65D8DFE804F00256E0
:101D2800021840F29D47C76012F0800F09D1F76B87
:101D380017F4807F59D0C76847F06007C760002054
:101D48000CE0C76847F48077C760002006E040F2DF
:101D58009D67C76012F0800F31D1002006F5806EB4
:101D6800D6F8187401F00F014FF0010C0CFA01F1CC
:101D78003943C6F81814B16941F00071B16112F025
:101D8800800F34D100269DF81410022932D000218A
:101D98009B0503F0FE53D20202F4F0421343A2045F
:101DA80002F440221343BDF81C20C2F30A02134375
:101DB80033430B43C5F80035032C1ED0F0BDC7686C
:101DC80047F48077C7600020C8E740F22527C7603E
:101DD80012F0800F01D10020C0E7C76847F4C07730
:101DE800C7600020BAE70120B8E70020B6E74FF443
:101DF8000046C8E74FF40031CAE7D5F8003543F08C
:101E08000053C5F80035D9E700F58060406980B215
:101E1800704710B400EB411101F5A064D1F800350A
:101E2800C3F381433BB3022B25D0D1F8003543F0EF
:101E38008043C1F80035D0F8103413F47F0F49D12E
:101E4800D1F8003523F00043C1F80035D1F800354A
:101E580043F00043C1F80035D1F8003523F40043BE
:101E6800C1F8003500230133B3F57A7F27D82268FB
:101E7800002AF8DB23E0D1F8003543F08043C1F8AD
:101E88000035C36A13F47F0F1DD1D1F8003523F054
:101E98000043C1F80035D1F8003543F00043C1F8DC
:101EA8000035D1F8003523F40043C1F8003500238C
:101EB8000133B3F57A7F02D82268002AF8DB0020C4
:101EC8005DF8044B7047D1F8003543F00043C1F882
:101ED8000035F4E7D1F8003543F00043C1F8003588
:101EE800EDE7000000EB4111064AC1F81025D1F8D2
:101EF800003523F0804343F00043C1F8003500204B
:101F0800704700BF0000088070B582B04C78C36B82
:101F180013F4807F07D00B792BB912B94B79012BB9
:101F280011D0012A13D00B69E3B10D892B44013B71
:101F3800B3FBF5F39BB2B3F5807F14D92D020D6185
:101F48004FF480730FE02146FFF7CCFF75E000EBFC
:101F58004413D3F80C5525F06005C3F80C5500233D
:101F68004B71E0E70123CD781DB10D8905FB03F521
:101F78000D610D69C5F31205374E06EAC3432B43BD
:101F88008D7A6D0705F0C04500EB44142B43C4F867
:101F9800103512B1CB68C4F8143500F58066B36803
:101FA80013F0010FD4F8003523F00053C4F80035BE
:101FB800D4F800350CBF4FF0005500252B43C4F86A
:101FC8000035D4F80055254B1D601D6825F0804567
:101FD8001D60CB78C3B1214D2B6843F400432B60BF
:101FE8001E4B1D6845F000451D601B68C4F8003590
:101FF8001ABBCB780BBB0B69FBB1CA79032A14D87F
:10200800DFE802F0081E081E144D2B6823F4004375
:102018002B60E5E70333C26A92B2C3F38F039A4297
:1020280003D2836943F020038361CC684A780B8A22
:10203800002100912146FFF743FD002002B070BD4A
:102048000333326992B2C3F38F039A42EDD28369A4
:1020580043F080638361E8E70000F81FB0000020C8
:1020680070B505460446FFF7E6FC10212846FFF741
:1020780001FD2846FFF712FD00220AE004EB421199
:10208800D1F8003523F0802343F08043C1F80035B0
:1020980001320F2AF2D90020034600E001300F2850
:1020A80013D804EB401606F5A061D6F8002522F4F3
:1020B800004242F04042C6F800250133B3F57A7F6A
:1020C800ECD80A68002AF8DBE8E74FF0FF33C5F8D8
:1020D80014346B612846FFF7A8FC002070BD00008F
:1020E800002800F0E48170B582B00446036813F05C
:1020F800010F3BD0A74B9B6803F00C03042B2CD09B
:10210800A44B9B6803F00C03082B21D06368B3F53C
:10211800803F4FD0B3F5A02F52D09E4B1A6822F4BF
:1021280080321A601A6822F480221A606368002BD1
:1021380050D000F0A5FD0546964B1B6813F4003FF0
:1021480014D100F09DFD401B6428F5D90320B3E1AC
:10215800904B5B6813F4800FD8D08E4B1B6813F438
:10216800003F03D06368002B00F0A381236813F0BD
:10217800020F55D0874B9B6813F00C0F3ED0854B50
:102188009B6803F00C03082B33D0E368002B68D05E
:10219800814B01221A6000F073FD05467D4B1B68D8
:1021A80013F0020F54D100F06BFD401B0228F5D943
:1021B800032081E1774A136843F480331360B5E75D
:1021C800744B1A6842F480221A601A6842F480320A
:1021D8001A60ABE700F054FD05466E4B1B6813F41C
:1021E800003FC3D000F04CFD401B6428F5D9032004
:1021F80062E1684B5B6813F4800FC6D1654B1B68BE
:1022080013F0020F04D0E368012B01D0012053E141
:10221800604A136823F0F803216943EAC103136095
:10222800236813F0080F40D0636963B35B4B012246
:102238001A6000F025FD0546564B5B6F13F0020F40
:1022480033D100F01DFD401B0228F5D9032033E1EE
:10225800504A136823F0F803216943EAC103136065
:10226800DEE74D4B00221A6000F00AFD0546494B97
:102278001B6813F0020FD3D000F002FD401B0228A8
:10228800F5D9032018E1454B00221A6000F0F8FC4C
:102298000546404B5B6F13F0020F06D000F0F0FCD0
:1022A800401B0228F5D9032006E1236813F0040F28
:1022B80079D0384B1B6C13F0805F33D10023019326
:1022C800344B1A6C42F080521A641B6C03F0805332
:1022D8000193019B0125324B1B6813F4807F23D0A7
:1022E800A368012B34D0052B38D02A4B1A6F22F063
:1022F80001021A671A6F22F004021A67A368002BFA
:1023080036D000F0BDFC0646224B1B6F13F0020FBF
:1023180048D100F0B5FC801B41F288339842F3D9CC
:102328000320C9E00025D6E71D4A136843F48073EB
:10233800136000F0A5FC0646194B1B6813F4807F58
:10234800CED100F09DFC801B0228F5D90320B3E014
:10235800104A136F43F001031367CFE70D4B1A6F51
:1023680042F004021A671A6F42F001021A67C5E7C1
:1023780000F086FC0646074B1B6F13F0020F11D0C6
:1023880000F07EFC801B41F288339842F3D9032089
:1023980092E000BF0038024000004742800E4742EA
:1023A80000700040EDB9A369002B00F08480454A15
:1023B800926802F00C02082A51D0022B17D0424B27
:1023C80000221A6000F05CFC04463E4B1B6813F0C8
:1023D800007F42D000F054FC001B0228F5D90320EE
:1023E8006AE0384A136C23F080531364DBE7364BFA
:1023F80000221A6000F044FC0546324B1B6813F0BB
:10240800007F06D000F03CFC401B0228F5D90320D1
:1024180052E0E369226A1343626A43EA8213A26ABA
:102428005208013A43EA0243E26A43EA0263254A50
:102438005360254B01221A6000F022FC0446214B10
:102448001B6813F0007F06D100F01AFC001B02285D
:10245800F5D9032030E000202EE000202CE0012BED
:102468002CD0184B5B6803F48001E269914201D0DB
:10247800012021E003F03F02216A8A4201D00120B5
:102488001AE0616A47F6C0721A408A4201D00120F8
:1024980012E003F44032A16A8A4201D001200BE025
:1024A80003F07063E26A93420AD0012004E001203D
:1024B8007047012000E0002002B070BD0120FBE75A
:1024C8000020F9E70038024060004742324B9B6821
:1024D80003F00C03042B5CD0082B01D02F48704765
:1024E8002DE9F04B2C4B5A6802F03F025B6813F45D
:1024F800800F2BD0284B5B68C3F388131E46002738
:102508005C010025E41A65EB0705A90141EA94611D
:10251800A001001B61EB0501CB0043EA5073C40026
:10252800A01943EB07014B0243EAD053440220466B
:1025380019460023FDF744FE174B5B68C3F30143BC
:1025480001335B00B0FBF3F0BDE8F08B124B5B6826
:10255800C3F388131E4600275C010025E41A65EBC7
:102568000705A90141EA9461A001001B61EB05017F
:10257800CB0043EA5073C400A01943EB07018B0258
:1025880043EA90538402204619460023FDF718FEBB
:10259800D2E70348704700BF003802400024F40027
:1025A80000127A00002800F09E8070B50446504B57
:1025B8001B6803F00F038B4209D2CBB24C4A13704D
:1025C800136803F00F038B4201D0012070BD23680C
:1025D80013F0020F17D013F0040F04D0454A936884
:1025E80043F4E0539360236813F0080F04D0414A82
:1025F800936843F4604393603E4A936823F0F00382
:10260800A068034393600D46236813F0010F32D08E
:102618006368012B21D09A1E012A25D9354A1268F0
:1026280012F0020F61D033498A6822F00302134383
:102638008B6000F025FB06462E4B9B6803F00C03CD
:102648006268B3EB820F16D000F01AFB801B41F2D0
:1026580088339842F0D90320B8E7264A126812F462
:10266800003FE0D10120B1E7224A126812F0007F52
:10267800D9D10120AAE71E4B1B6803F00F03AB4218
:1026880009D9EAB21A4B1A701B6803F00F03AB4260
:1026980001D001209AE7236813F0040F06D0154AE9
:1026A800936823F4E053E1680B439360236813F0C5
:1026B800080F07D00F4A936823F46043216943EA5F
:1026C800C1039360FFF702FF0A4B9B68C3F3031330
:1026D800094AD35CD840094B1860094B186800F0C8
:1026E80083FA002072E70120704701206EE700BFDF
:1026F800003C024000380240C04E0008080000209C
:1027080004000020014B1868704700BF0800002033
:1027180008B5FFF7F7FF044B9B68C3F38223034A0E
:10272800D35CD84008BD00BF00380240D04E000836
:1027380008B5FFF7E7FF044B9B68C3F34233034A2E
:10274800D35CD84008BD00BF00380240D04E000816
:1027580030B583B00446036813F0050F06D123682B
:1027680013F0020F2ED1002003B030BD494B0022D8
:102778001A6000F085FA0546474B1B6813F0006F96
:1027880006D000F07DFA401B0228F5D90320EBE7BC
:102798006268A3681B0743EA82133F4AC2F8843081
:1027A8003C4B01221A6000F06BFA05463A4B1B6855
:1027B80013F0006FD3D100F063FA401B0228F5D95B
:1027C8000320D1E700230193334B1A6C42F0805267
:1027D8001A641B6C03F080530193019B2F4A136802
:1027E80043F48073136000F04BFA05462B4B1B68CB
:1027F80013F4807F06D100F043FA401B0228F5D974
:102808000320B1E7244B1B6F13F4407312D0E26826
:1028180002F440729A420DD01F4B1A6F22F4407294
:102828001F4901200860002008601A671B6F13F019
:10283800010F13D1E36803F44072B2F5407F1ED054
:10284800154A936823F4F813936013490B6FE268F1
:10285800C2F30B0213430B67002085E700F010FA60
:1028680005460D4B1B6F13F0020FE3D100F008FA79
:10287800401B41F288339842F3D9032074E7064994
:102888008A6822F4F81223F0704323F44073134348
:102898008B60DAE768004742003802400070004069
:1028A800400E474201282AD1174B9B6813F40003B6
:1028B80003D0012B25D115487047134B5B6813F4DF
:1028C800800F14D0104B5B6803F03F031048B0FB37
:1028D800F3F00D4AD2F88430C3F3881300FB03F0F9
:1028E800D2F88430C3F30273B0FBF3F07047064BA1
:1028F8005B6803F03F030748B0FBF3F0E9E700200B
:1029080070470020704700BF003802400080BB00BD
:1029180000127A000024F40000230F2B00F2D78065
:10292800F0B583B039E0072200E00022AA403A431C
:102938000234674D45F82420664A1468F24302EAD7
:1029480004054F6817F4803F01D046EA0405614C3E
:102958002560646802EA04054F6817F4003F01D057
:1029680046EA04055B4C6560A46802EA04054F6802
:1029780017F4801F01D046EA0405564CA560E468A8
:1029880022404D6815F4001F01D046EA0402514C5C
:10299800E26001330F2B00F2988001229A400C6804
:1029A80004EA0206B242F4D14C68651E012D03D92F
:1029B800112C01D0122C12D185685F000324BC4071
:1029C80025EA0405CC68BC402C438460456825EAA8
:1029D80002054C68C4F300129A402A434260C46856
:1029E8005F000322BA40D24314408D68BD4025439E
:1029F800C5604C68022C01D0122C13D1DD080835B3
:102A080050F825E003F007044FEA840C0F2404FA79
:102A18000CF42EEA040E0C6904FA0CF444EA0E04D1
:102A280040F82540046822404C6804F00304BC4088
:102A3800224302604A6812F0805FAAD00022019205
:102A4800254A546C44F480445464526C02F4804225
:102A58000192019A9C08A51C1D4A52F8257003F0A2
:102A6800030295000F22AA4027EA02071B4A904258
:102A78003FF45BAF02F5806290421AD002F58062A3
:102A8800904218D002F58062904216D002F580621A
:102A9800904214D002F58062904212D002F5806212
:102AA800904210D002F5806290423FF43CAF082279
:102AB8003CE701223AE7022238E7032236E70422FC
:102AC80034E7052232E7062230E703B0F0BD70474D
:102AD80000380140003C014000380240000002403C
:102AE80012B90904816170478161704790F83530E7
:102AF800DBB2022B03D080234365012070470523F6
:102B080080F835300268136823F001031360002051
:102B180070470000074AD36823F4E0631B041B0CCA
:102B2800000200F4E060184340F0BF6040F4003059
:102B3800D060704700ED00E030B4174BDB68C3F39A
:102B48000223C3F10704042C28BF04241D1D062DED
:102B580018D9033B4FF0FF3505FA04F421EA0401C4
:102B6800994005FA03F322EA0303194300280BDB13
:102B78000901C9B200F1604000F5614080F8001316
:102B880030BC70470023E5E700F00F000901C9B227
:102B9800024B1954F4E700BF00ED00E014ED00E02B
:102BA800002807DB00F01F02400901239340024A76
:102BB80042F82030704700BF00E100E00138B0F172
:102BC800807F0AD2064B5860064AF02182F823100B
:102BD8000020986007221A6070470120704700BFE4
:102BE80010E000E000ED00E010B504460E4B187848
:102BF8004FF47A73B3FBF0F30C4A1068B0FBF3F0B0
:102C0800FFF7DCFF68B90F2C01D901200AE0002288
:102C180021464FF0FF30FFF78FFF054B1C60002067
:102C280000E0012010BD00BF0000002008000020C7
:102C38000400002008B50B4B1A6842F400721A60B1
:102C48001A6842F480621A601A6842F480721A6044
:102C58000320FFF75FFF0020FFF7C6FFFDF708FF1F
:102C6800002008BD003C0240034A1168034B1B7852
:102C78000B441360704700BF90080020000000203C
:102C8800014B1868704700BF9008002038B504460B
:102C9800FFF7F6FF0546B4F1FF3F02D0044B1B785F
:102CA8001C44FFF7EDFF401BA042FAD338BD00BF1C
:102CB80000000020002800F0C880F8B5044690F80D
:102CC8003D30002B75D0242384F83D3022681368EA
:102CD80023F0010313602268136843F40043136070
:102CE8002268136823F400431360FFF711FD62683C
:102CF800584B9A4262D8584B98428CBF0023012304
:102D0800002B40F0A480554BA3FB00239B0C2168AB
:102D18004A6822F03F021A434A6025682A6A22F06C
:102D28003F0266684B498E424ED8013313432B62EB
:102D38002568E96921F44F4121F0FF016368454A9C
:102D480093424BD801385B00B0FBF3F30133C3F374
:102D58000B03042B38BF04230B43EB6121680B687A
:102D680023F0C003E269206A024313430B60216821
:102D78008B6823F4034323F0FF032269E0680243CE
:102D880013438B602168CB6823F0FF036269A06955
:102D980002431343CB602268136843F001031360B6
:102DA80000202064202384F83D30206384F83E000E
:102DB800F8BD80F83C30FDF7EFFC84E7284B9842DB
:102DC8008CBF002301239BE74FF4967101FB03F3AB
:102DD8002449A1FB03139B090133A7E7A268BAB9E9
:102DE800461E03EB4307B6FBF7F60136C6F30B06A0
:102DF800B6FA86F6760936BBC2B9013803EB430347
:102E0800B0FBF3F30133C3F30B0242F40043A3E72F
:102E1800461E03EB830707EB8707B6FBF7F6013679
:102E2800C6F30B06B6FA86F67609E4E7013803EB33
:102E3800830303EB8303B0FBF3F20132C2F30B020B
:102E480042F4404388E7012386E7012070470120C8
:102E5800AEE700BFA08601007F841E0083DE1B430F
:102E6800FF083D00D34D6210002800F0BF8070B508
:102E7800044690F84130002B51D0022284F84120BA
:102E88002168CB6923F47B6323F00F03CB612368AC
:102E98001A626369934263D0E368002B46D1102518
:102EA800A368202B00D86D000120FFF7FBFC2369E5
:102EB800B3F5007F3CD0B0FBF5F000EB8000430099
:102EC8006269B3FBF2F30533494AA2FB0323DB082B
:102ED80003F001029B1A5B081202991EFD2941D8D2
:102EE80021690A43216813430B622168CB6923F4E3
:102EF8007B6323F00F036268A0680243E068024323
:102F0800A0690243134343F40063CB61236A012B96
:102F18002ED000206064012384F8413070BD80F811
:102F28004030344B4363FDF78DFCA6E72025B7E717
:102F3800E36853B1AD00B0FBF5F000EB800043004F
:102F48006269B3FBF2F30533BEE7ED00B0FBF5F0C1
:102F580000EB800043006269B3FBF2F30533B3E78B
:102F68000022BAE7636C43F0100363640120D5E7DD
:102F7800214B63632268214B9A421FD04FF04022B5
:102F8800D36923F47B6323F00F03D36122681B4BBF
:102F98009A4215D04FF0402302221A622268174B3A
:102FA8009A4210D04FF04021CA6992B26368B3F5D3
:102FB800007F0AD0C3B94FF4807608E0104ADFE7F3
:102FC800A3F58063E8E70E49EEE74FF48076A06842
:102FD800E568238B2B439BB203439BB233431343D4
:102FE80043F40063CB6194E70026F0E701207047C3
:102FF800CDCCCCCC7F3000088932000800380040A6
:1030080000340040704708B5426A03681288DA60E5
:10301800436A02334362438D013B9BB24385438D30
:103028009BB203B108BD0268536823F0A003536044
:10303800012380F84130FFF7E5FFF3E7704708B553
:103048000368DA68C36A1A80C36A0233C362438EAC
:10305800013B9BB24386438E9BB203B108BD026815
:10306800536823F060035360012380F84130FFF771
:10307800E5FFF3E7704710B584B00446026893682B
:10308800039390F84130DBB2042B06D094F841301A
:10309800DBB2032B2CD004B010BD039B13F0010F3F
:1030A80003D0536813F0400F1FD1039B13F0400F58
:1030B800ECD023685A6812F0200FE7D05A6822F043
:1030C80060025A60002301932368DA6801929B68C2
:1030D8000193019B012384F84130636C43F00203A0
:1030E80063642046FFF7C6FFD0E7FFF7A8FFDCE7D9
:1030F800039B13F0020F04D023685B6813F0800F62
:103108001DD1039B13F0080FC5D023685A6812F02D
:10311800200FC0D05A6822F0A0025A600023029300
:1031280023689B680293029B012384F84130636CF7
:1031380043F0040363642046FFF79CFFABE7204697
:10314800FFF761FFDDE7704708B5436A9A1C4262E2
:1031580002681B88D360438D013B9BB24385438D36
:103168009BB23BB90268536823F0A0035360438EB7
:103178009BB203B108BD012380F84130FFF7E3FF9C
:10318800F8E7000008B50268144B9A421BD04FF0CC
:103198004023DA68C36A991CC1621A80438E013BD6
:1031A8009BB24386438E9BB263B902680B4B9A422B
:1031B8000CD04FF04022536823F060035360438DD6
:1031C8009BB22BB108BDA3F58063E2E7044AF2E79E
:1031D800012380F84130FFF7B6FFF3E700380040DD
:1031E8000034004008B5436A9A1C42621A88016894
:1031F800124B994217D04FF04023DA60438D013BC0
:103208009BB24385438D9BB263B902680B4B9A42CC
:103218000CD04FF04022536823F0A0035360438E34
:103228009BB22BB108BDA3F58063E6E7044AF2E739
:10323800012380F84130FFF786FFF3E700380040AC
:103248000034004008B50368DA68C36A991CC16293
:103258001A80438E013B9BB24386438E9BB23BB997
:103268000268536823F060035360438D9BB203B137
:1032780008BD012380F84130FFF765FFF8E700003B
:1032880010B586B0044603689A680592704A93425E
:103298006FD04FF04022916804915B6803935368A4
:1032A80002936368B3F5007F01D0002B70D1059BB2
:1032B80013F0020F03D0039B13F0800F5CD1049B23
:1032C80013F0010F03D0029B13F0400F58D1049B59
:1032D80013F0400F24D0029B13F0200F20D0226857
:1032E8005B4B9A4250D04FF04022536823F0600362
:1032F80053602268536823F0A003536000230093AF
:103308002368DA6800929B680093009B012384F885
:103318004130636C43F0020363642046FFF7AAFE62
:10332800059B13F0080F22D0039B13F0200F1ED02B
:103338002268536823F0A00353602268444B9A42E2
:1033480024D04FF04022536823F0600353600023D9
:10335800019323689B680193019B012384F8413002
:10336800636C43F0040363642046FFF783FE06B0F2
:1033780010BDA2F580628EE72046FFF7E5FE9EE7C6
:103388002046FFF7FFFEA2E7324AAEE7314ADAE706
:10339800049B13F0020F03D0029B13F0800F4AD155
:1033A800059B13F0010F03D0039B13F0400F46D188
:1033B800059B13F0400F1CD0039B13F0200F18D06F
:1033C8002268536823F0600353602268204B9A42B6
:1033D80039D04FF04022536823F0A00353600123F3
:1033E80084F84130636C43F0020363642046FFF7BE
:1033F80041FE049B13F0080FB9D0029B13F0200F75
:10340800B5D02268124B9A421FD04FF04022536821
:1034180023F0A00353602268536823F060035360CD
:10342800012384F84130636C43F00403636420464D
:10343800FFF720FE9BE72046FFF7D4FEB0E72046C3
:10344800FFF700FFB4E7034AC5E7024ADFE700BF1A
:10345800003800400034004000283BD010B5044636
:103468000023836290F85130002B2ED0022384F879
:1034780051302268136823F0400313606368A26820
:103488001343E26813432269134362691343A26931
:1034980002F400721343E2691343226A1343A16AD8
:1034A80022680B431360638B03F00403616A22688C
:1034B8000B4353602268D36923F40063D36100206F
:1034C8006065012384F8513010BD80F85030FDF755
:1034D80025FACBE7012070470268D36823F490737C
:1034E800D3600268536923F001035361202380F8F5
:1034F8003A30704790F83930DBB2212B2AD18368F3
:10350800B3F5805F16D0036A5A1C02621A78036802
:103518005A60C38C013B9BB2C384EBB90268D36881
:1035280023F08003D3600268D36843F04003D3607C
:1035380000207047036A1B880268C3F308035360BE
:1035480003691BB9036A02330362E2E7036A0133C2
:103558000362DEE702207047002070472DE9F04B38
:1035680004460268136923F44053C1680B4313618E
:1035780083680269134342691343C2691A430168A5
:10358800CB6823F4164323F00C031343CB60026883
:10359800536923F4407381690B435361C369B3F5DD
:1035A800004F3BD00368714A934200F0AB8002F5AC
:1035B8008062934200F0A680FFF7AAF84FF0000956
:1035C800061849EB090716EB000B47EB090C4FEA05
:1035D800CC0343EA5B734FEACB0293469C4663688D
:1035E8009A009B0F10EB0B0049EB0C01FCF7E8FD70
:1035F8005F4DA5FB00325109642202FB1102130141
:103608003233A5FB03235B0903F0F00202EB01123E
:1036180003F00F03216813448B60A4E00368534A46
:10362800934239D002F58062934235D0FFF770F8A3
:1036380083464FF0000C06184CEB0C0716EB0008FD
:1036480047EB0C094FEAC90343EA58734FEAC8022B
:103658009046994662680021921841EB01031BEBE2
:1036680008004CEB0901FCF7ABFD414DA5FB00320E
:103678005109642202FB1102D3003233A5FB032354
:103688005B095A0002F4F87202EB011203F0070317
:10369800216813448B6066E0FFF74AF880464FF0D4
:1036A8000009061849EB090716EB000B47EB090C54
:1036B8004FEACC0343EA5B734FEACB0293469C463E
:1036C80062680021921841EB010318EB0B0049EBEB
:1036D8000C01FCF775FD264DA5FB0032510964224B
:1036E80002FB1102D3003233A5FB03235B095A0006
:1036F80002F4F87202EB011203F007032168134485
:103708008B6030E0FFF714F84FF00009061849EB1A
:10371800090716EB000B47EB090C4FEACC0343EA09
:103728005B734FEACB0293469C4663689A009B0FF3
:1037380010EB0B0049EB0C01FCF742FD0C4DA5FB0F
:1037480000325109642202FB110213013233A5FB36
:1037580003235B0903F0F00202EB011203F00F03ED
:10376800216813448B60BDE8F08B00BF0010014056
:103778001F85EB512DE9F04105460F461646984640
:10378800069C2B681B6837EA03030CBF0123002340
:10379800B3421DD1B4F1FF3FF3D02CB1FFF770FA5B
:1037A800A0EB0800A042ECD92A68D36823F4D073B0
:1037B800D3602A68536923F001035361202385F8F5
:1037C800393085F83A30002385F83830032000E096
:1037D8000020BDE8F08158B310B5044690F83930A0
:1037E8000BB3242384F839302268D36823F40053B8
:1037F800D3602046FFF7B2FE2268136923F4904392
:1038080013612268536923F02A0353612268D3683D
:1038180043F40053D3600020E063202384F8393058
:1038280084F83A3010BD80F83830FDF7C7F8D8E78B
:10383800012070472DE9F04383B01E4690F83930D7
:10384800DBB2202B56D104460D469046002956D0AF
:10385800002A56D090F83830012B54D0012380F834
:1038680038304FF00009C0F83C90212380F83930F7
:10387800FFF706FA0746A4F82480A4F8268084F8FF
:10388800389010E000963B46002280212046FFF742
:1038980071FF002839D12B882268C3F308035360CD
:1038A8002369C3B90235E38C9BB2B3B1E38C013B06
:1038B8009BB2E384A368B3F5805FE3D000963B46F0
:1038C800002280212046FFF755FF00BB2A78236895
:1038D8005A600135E7E70135E5E700963B460022E7
:1038E80040212046FFF746FF034690B9202284F87E
:1038F800392000E00223184603B0BDE8F083012315
:10390800F9E70123F7E70223F5E70323F3E70323A6
:10391800F1E70323EFE7704708B50168CB6823F0A8
:103928004003CB60202380F83930FFF7F4FF0020F4
:1039380008BD704708B590F83A30DBB2222B45D164
:103948008368B3F5805F0ED0036903BB03685A68C8
:10395800836A591C81621A70C38D013B9BB2C3856F
:10396800F3B1002033E0826A036943B903685B68F6
:10397800C3F308031380836A02338362ECE70368A6
:103988005B68DBB21380836A01338362E4E7036810
:103998005B68826A511C816203F07F031370DBE766
:1039A8000268D36823F02003D3600268D36823F445
:1039B8008073D3600268536923F0010353612023A5
:1039C80080F83A30FFF7B5FF002000E0022008BD7C
:1039D8007047000010B5044602681368D168526940
:1039E80013F00F0005D113F0200F02D011F0200FB3
:1039F80056D100286AD012F0010202D111F4907F4A
:103A080064D013F0010F06D011F4807F03D0E06B6F
:103A180040F00100E06313F0040F04D01AB1E06B2A
:103A280040F00200E06313F0020F04D01AB1E06B1B
:103A380040F00400E06313F0080F07D011F0200FE6
:103A480000D11AB1E26B42F00802E263E26B002A8D
:103A580048D013F0200F02D011F0200F24D1236892
:103A68005B6903F04003E26B12F0080F00D13BB32F
:103A78002046FFF731FD23685A6912F0400F1BD02A
:103A88005A6922F040025A61636B8BB11A4A1A656F
:103A9800606BFFF72BF828B3606B036D984721E044
:103AA8002046FFF747FF1DE02046FFF743FFD6E714
:103AB8002046FFF78DFF15E02046FFF789FF11E04C
:103AC8002046FFF785FF0023E3630BE013F0800F28
:103AD80002D011F0800F06D113F0400F02D011F080
:103AE800400F04D110BD2046FFF704FDFAE7204639
:103AF800FFF712FFF6E700BF053B000808B5806B2B
:103B08000023C385C384FFF763FF08BD054BD3F8C3
:103B1800882042F47002C3F888204FF000629A604F
:103B2800704700BF00ED00E0002306E003F1E0026B
:103B380000EB82020021516001330E2BF6D90023DD
:103B480004E0C218002182F81C110133B3F5007F8C
:103B5800F7D300230370437001228270C0F8C43386
:103B6800027640218171437680F81C3380F81D234A
:103B780080F81F3380F81E331846704708B503785D
:103B8800DBB20B2B00D008BDD0F87C33002BFAD069
:103B98009B699847F7E770B584B004464378072BCC
:103BA80000F23081DFE813F0080048006D009E0045
:103BB800C300E90004011D01082100F00CFD18B143
:103BC800032821D00125DEE094F82D23A2710125D8
:103BD800657094F81C33217902920026019694F8B6
:103BE8001D2300928022204600F0F4FD94F81C3337
:103BF8006179A2790292019694F81D2300923246C7
:103C0800204600F0E7FDBEE094F81E330133DBB236
:103C180084F81E33032B03D90D2323700125B2E04A
:103C28006179204600F0FEFD2179204600F0FAFD7A
:103C3800002323700125A6E0122100F0CCFC18B166
:103C4800032805D001259EE00223637001259AE030
:103C580094F81E330133DBB284F81E33032B03D9E7
:103C68000D23237001258EE06179204600F0DAFDEE
:103C78002179204600F0D6FD0023637023700125CA
:103C880081E0012100F0F1FC18B1032824D00125BE
:103C980079E00220FDF721F8012584F81C5303235D
:103CA80063702179A37902930026019694F81D3355
:103CB80000932B468022204600F08CFD94F81C339C
:103CC8006179A2790292019694F81D2300923246F6
:103CD800204600F07FFD56E00D232370002363701B
:103CE800012550E0092100F08FFC18B1032805D008
:103CF800012548E004236370012544E094F81E334D
:103D08000133DBB284F81E33032B03D90D23237050
:103D1800012538E06179204600F084FD21792046AC
:103D280000F080FD00236370237001252BE0B0F8BC
:103D38003A1300F069FC18B1032805D0012522E0E8
:103D48000523637001251EE094F81E330133DBB2AE
:103D580084F81E33032B03D90D232370012512E0A9
:103D68006179204600F05EFD2179204600F05AFD79
:103D7800002363702370012505E090F8341329B9F6
:103D8800062343700125284604B070BDFF2300F5C3
:103D98008E7200F052FC18B1032805D00125F2E715
:103DA800062363700125EEE7062363700125EAE721
:103DB80090F8351319B9072343700125E3E7FF236A
:103DC80000F58E7200F039FC18B1032805D00125E2
:103DD800D9E7072363700125D5E707236370012519
:103DE800D1E790F8361309B90025CCE7FF2300F591
:103DF8008E7200F022FC05460028C4D0032803D0A8
:103E08000125C0E70125BEE70025BCE7D8B170B59C
:103E180004460E4680F8CC230025C0F87C53C0F831
:103E28008053FFF781FE84F8235384F8205384F8E5
:103E3800215384F822530EB1C4F8D4632046FCF70A
:103E4800E1FE002070BD022070470A4651B1D0F84B
:103E580080334BB9591CC0F88013DE3340F8232057
:103E680000207047022070470220704790F83C33CA
:103E78008B4203D980F82413002070470220704732
:103E880070B4064600200AE01A2404FB056595F87C
:103E980049439C421AD0FF2B18D0441CE0B2012899
:103EA80013D805461A2404FB006494F847438C424F
:103EB80001D0FF29F1D11A2404FB056494F8484382
:103EC8009442E1D0FF2AE8D1DEE7FF2070BC7047BA
:103ED80010B50446FCF70EFF01212046FCF7D6FE7C
:103EE800002010BD30B587B0044602238DF8173086
:103EF80090F82133DBB2012B11D02378DBB20B2BE6
:103F08007BD8DFE813F00F002100450009017A0093
:103F18007D00E70092009C00A600B7000001032383
:103F28000370EAE794F82033002B66D0012323704E
:103F3800C820FCF7D2FE2046FCF7ECFE002384F8EC
:103F48001C33C4F8C83358E094F82333012B0FD03E
:103F5800D4F8C833B3F57A7F13D994F81F330133F3
:103F6800DBB284F81F33032B08D90D23237044E0F8
:103F7800002384F81F33022323703EE000232370BC
:103F88003BE00A33C4F8C8330A20FCF7A6FE34E045
:103F9800D4F8D43313B10421204698476420FCF7A1
:103FA8009CFE2046FCF758FE84F81D030523237069
:103FB8000021204600F023FC60718021204600F09B
:103FC8001EFC0146207194F81C33A2790292002548
:103FD800019594F81D2300928022204600F0FAFBF8
:103FE80094F81C336179A2790292019594F81D2303
:103FF80000922A46204600F0EDFB002007B030BDB5
:104008002046FFF7C8FD8DF817009DF81730002BE4
:10401800F3D184F8243394F83733012B02D00723E3
:104028002370EAE708232370E7E7D4F8D433002B9A
:10403800E3D001212046984708232370DDE794F850
:104048003D13204600F022FB0028D6D10923237017
:10405800D3E794F83F3313F0200F02D10A232370DB
:10406800CBE70121204600F022FB0028C5D10A2316
:104078002370C2E7D4F88033002BBED00023C4F8E5
:104088007C3373B1D4F87C330BB39B6820469847D4
:10409800D0B906232370D4F8D43303212046984797
:1040A800ABE7184603F1DE0254F82220117994F8A0
:1040B8004723914202D00133DBB2E2E7DE3054F805
:1040C8002030C4F87C33DDE70D23237095E70D23FA
:1040D800237092E7D4F87C3393B11B692046984744
:1040E8008DF817009DF817303BB19DF81730DBB2FB
:1040F800022B82D10D2323707FE70B2323707CE7EB
:104108000D23237079E7D4F87C33002B3FF475AF87
:104118005B692046984770E7002384F821332046DE
:10412800FFF702FDD4F87C332BB1DB6820469847B3
:104138000023C4F87C33D4F8D43313B105212046C6
:10414800984794F82233DBB2012B03D02046FCF7C2
:10415800D1FD52E7002384F822332046FFF7B8FE4A
:104168004BE7C0F8C413704708B5D0F8C43301331F
:10417800C0F8C433FFF702FD08BD012380F82333DC
:104188007047002380F823337047012380F82033D9
:10419800002380F8213380F822331846704738B559
:1041A8000446012380F82133002580F8205380F845
:1041B8002353FCF7A7FD2179204600F033FB6179F2
:1041C800204600F02FFB284638BD10B40B7803704A
:1041D8004B7843708B78CC7843EA042343800B797F
:1041E80003714B7943718B798371CB79C371082A39
:1041F80016D90B7A4A7A43EA022303818B7ACA7A60
:1042080043EA022343810B7B4A7B43EA02238381EF
:104218008B7B8373CB7BC3730B7C03744B7C4374A2
:104228005DF8044B70470B7803704B7843708B78BC
:104238008370CB78C3700B7903714B7943718B7999
:104248008371CB79C3710B7A037270470B78037053
:104258004B7843708B788370CB78C3700B794A792D
:1042680043EA022383808B79837170474378032B59
:1042780000D070470378023B9A4228BF1A4692B290
:10428800002393420DD210B4C418A47801F8014B4E
:1042980002339BB29342F7D300230B705DF8044BB3
:1042A800704700230B70704730B583B00446037E17
:1042B800013B0A2B00F2E180DFE803F006103743E8
:1042C8005664808C9FADC400427900F1100100F063
:1042D80011FA02232376012003B030BD4179FCF79F
:1042E800CFFC012805D004281BD0022819D00120B2
:1042F800F2E7237CE28A4AB113F0800F03D1052349
:1043080023760120E8E703232376E5E713F0800FFF
:1043180003D1072323760120DEE709232376012032
:10432800DAE70B2323760120D6E7D0F8C433C3811C
:1043380003798289816800F004FA04232376012036
:10434800CAE70179FCF79CFC012806D0052800F093
:104358009680042804D00120BEE709232376F5E7D8
:104368000B2323760120B7E743798289012500953D
:10437800816800F0D0F9D4F8C433E38106232376AA
:104388002846A9E74179FCF77BFC012807D00528D6
:1043980008D002280AD004280CD001209CE7072363
:1043A800237699E70C232376032095E705232376C4
:1043B800012091E70B23237602208DE70379002261
:1043C800114600F0BEF9D4F8C433E38108232376FC
:1043D800012081E70179FCF753FC012805D0042866
:1043E80007D005284DD0012076E70D23237600203D
:1043F80072E70B23237601206EE7437901250095A8
:104408000022114600F087F9D4F8C433E3810A2367
:104418002376284660E74179FCF732FC012805D06D
:10442800022807D0042809D0012055E70D23237658
:10443800002051E70923237601204DE70B2323763B
:10444800012049E7437E0133DBB24376022B10D9C2
:10445800D0F8D4330621984700256576617920463F
:1044680000F0E0F92179204600F0DCF925700220FF
:1044780032E701202076A0702EE701202CE70320E8
:104488002AE7032028E703780A8813440B80037877
:10449800184470472DE9F04182B00C460B78037040
:1044A8004B7843708B78C97843EA0123438023799A
:1044B800037163794371A3798371E379C371237AB3
:1044C8000372092A44D905460923ADF806300026A7
:1044D800012E3DD86A88BDF806309A4238D90DF1C8
:1044E80006012046FFF7CFFF04464378042BEFD19F
:1044F800B0461A2000FB06F0083028442146023056
:10450800FFF791FE00271A2303FB08539B7BBB424E
:104518001BD96A88BDF806309A4216D90DF10601F2
:104528002046FFF7B0FF04464378052BEBD101374F
:104538001A2000FB08F000EBC70008302844214689
:104548000430FFF783FEFFB2DDE70136F6B2BFE7BE
:1045580002B0BDE8F0818378012B03D0022B09D08B
:10456800012305E0816082810123037602228270A3
:104578001846704710B50446FFF796FE034630B15B
:10458800032804D0022806D10122A27003E00122E8
:10459800A27000222276184610BD38B5BDF810501A
:1045A8008478012C04D02A461946FFF7D4FF38BD79
:1045B80061F07F04047406214174428202F47F444E
:1045C800B4F5407F03D000228282C582EBE740F237
:1045D80009428282F9E7F0B583B0044600F58E758A
:1045E8000E4600912B464FF480720021FFF7D5FF4D
:1045F800074610B1384603B0F0BD3246294604F2EA
:104608002630FFF7E2FDF5E7F0B583B004460E4625
:1046180000F11C0500912B464FF400720021FFF7B2
:10462800BCFF074610B1384603B0F0BD32462946F4
:1046380004F54E70FFF72EFFF5E7F0B583B0174687
:104648001D4600F58E740093234641F44072002104
:10465800FFF7A3FF064610B1304603B0F0BD2A4667
:1046680039462046FFF702FEF6E708B58378012BA6
:1046780004D000221146FFF76EFF08BD0023037423
:104688000522427441828382C382F2E708B58378A7
:10469800012B04D000221146FFF75DFF08BD00235F
:1046A80003740922427441828382C382F2E708B507
:1046B8008378012B04D000221146FFF74CFF08BD78
:1046C800002303740322427441828382C382F2E787
:1046D80008B58378012B04D000221146FFF73BFF71
:1046E80008BD02230374012343740023438281829B
:1046F800C382F1E730B585B015460024039408233A
:10470800029301910094234622462946FCF725FB93
:10471800204605B030BD30B585B00C4619469DF829
:10472800203090F81D5305B10023039302920194A1
:104738000123009300231A46FCF70FFB002005B065
:1047480030BD30B585B01D46002403940292019116
:104758000122009223462946FCF7FFFA204605B0BD
:1047680030BD30B585B00C4619469DF8203090F81C
:104778001D5305B100230393029201940123009372
:1047880002230022FCF7E9FA002005B030BD30B55D
:1047980085B01D46002403940292019101220092E3
:1047A80002232946FCF7D9FA204605B030BD00237C
:1047B8000A2B0CD803F1E00200EB8202526812F4D3
:1047C800004F02D00133DBB2F2E798B270474FF6E0
:1047D800FF70704710B584B0BDF8204002949DF872
:1047E8001C4001949DF818400094FCF79BFA0020A7
:1047F80004B010BD08B5FCF7A8FA002008BD38B50C
:1048080004460D46FFF7D3FF4FF6FF73984207D0D3
:1048180000F00F0345F40045E03304EB83035D60CB
:10482800C0B238BD0A2906D8E03100EB81014B68D7
:10483800C3F30E034B60002070470020704708B593
:10484800212202742022427400224282828207229C
:10485800C282FFF780FE08BD08B5A122027421229A
:1048680042740022428282820722C282FFF773FECC
:1048780008BD38B50446D0F87C33D9694031FFF714
:10488800EBFF054620B9D4F8D433022120469847D7
:10489800284638BD38B50546D0F87C33DC69217820
:1048A80079B9217BB1B9617BF1B9D5F87C33D86985
:1048B80028B100F015FAD5F87C330022DA6100201F
:1048C80038BDFFF797FF21782846FFF7ABFF002395
:1048D8002370E6E72846FFF78DFF217B2846FFF780
:1048E800A1FF00232373DEE72846FFF783FF617BE0
:1048F8002846FFF797FF00236373D6E7F0B585B026
:104908000446012302221146FFF7BAFA012803D907
:104918000227384605B0F0BD064601462046FFF797
:10492800A5FA0746002840F0A280D4F87C5350200E
:1049380000F0CEF9E861D4F87C33DD69002D00F091
:10494800988050220021284600F0D2F91A2303FB50
:10495800064393F84E3313F0800F70D169782046E0
:10496800FFF74DFF0146287094F81C336A78688970
:1049780002900320019094F81D0300902046FFF751
:1049880029FF002229782046FCF78EF900231A46D1
:104998000A212046FFF774FA01286CD81A2303FB72
:1049A800004393F84E3313F0800F50D1AB731A23A2
:1049B80003FB0043B3F850332B831A2303FB004354
:1049C80093F8563313F0800F49D1AB731A2303FBC6
:1049D8000040B0F858332B83A97B2046FFF70FFF20
:1049E8006873E97B2046FFF70AFF287394F81C33A5
:1049F800AA7B697B288B02900226019694F81D03F6
:104A080000902046FFF7E6FE94F81C33EA7B297BEA
:104A1800688B0290019694F81D0300902046FFF7DA
:104A2800D9FE002685F84C603246697B2046FCF7A3
:104A38003BF93246297B2046FCF736F969E76B706B
:104A48001A2303FB0646B6F850336B8186E7EB73EF
:104A58001A2303FB0043B3F850336B83ADE7EB73C2
:104A68001A2303FB0040B0F858336B83B4E70227DE
:104A78004FE702274DE702274BE7704730B583B071
:104A88000546D0F87C33DC6994F84D30012B03D00F
:104A9800022B19D003B030BD606A228B90420AD92C
:104AA800637BE169012000902846FFF75AFE022344
:104AB80084F84D30EEE7637BE1690122009282B20F
:104AC8002846FFF74EFEF2E7617BFCF7D9F801288C
:104AD80005D00228DED1012384F84D30DAE7636A75
:104AE800228B93420AD99B1A6362E3691A44E261F2
:104AF800636A33B1012384F84D30CBE70023636246
:104B0800F6E7002384F84D302846FFF7B6FFC1E7E3
:104B1800704738B50546D0F87C33DC6994F84E30D8
:104B2800032B02D0042B09D038BD237B628B216A6A
:104B3800FFF72DFE042384F84E30F5E7217BFCF7C0
:104B48009FF80128F0D1217B2846FCF793F8A36A47
:104B5800834202D0628B824206D3002384F84E300F
:104B68002846FFF7D5FFDFE71B1AA362236A18441C
:104B78002062032384F84E30D6E7704738B50546DF
:104B8800D0F87C33DC6994F84C30042B04D8DFE887
:104B980003F04C05163C4300012347E0A16CFFF7E6
:104BA8004EFE034630B1012840D0042384F84C302F
:104BB80001233BE0022384F84C30012336E004F162
:104BC8004001FFF749FE0346C0B9002384F84C3082
:104BD800636C23F07F42A16C4B6823F07F439A42B9
:104BE80001D0012322E0226C0B689A4201D00123F4
:104BF8001CE02846FFF7C1FF012317E0012815D064
:104C0800042384F84C30012310E0FFF737FF2846CF
:104C1800FFF77FFF012309E00021FFF759FD38B9AD
:104C2800002384F84C30012300E00023184638BDE7
:104C38000123FBE7DFF834D0002103E00C4B5B587D
:104C4800435004310B480C4B42189A42F6D30B4A96
:104C580002E0002342F8043B094B9A42F9D3FEF7DD
:104C680055FF00F011F8FBF793FC70470000022095
:104C7800EC4E00080000002090000020900000206A
:104C880098080020FEE7000070B50D4E0D4CA41BDF
:104C9800A4100025A54209D10B4E0C4C00F0F8F8E1
:104CA800A41BA4100025A54205D170BD56F82530D7
:104CB80098470135EEE756F8253098470135F2E771
:104CC800E44E0008E44E0008E44E0008E84E0008F0
:104CD800024B0146186800F061B800BF2C000020A4
:104CE800024B0146186800F00BB800BF2C000020EA
:104CF80002440346934200D1704703F8011BF9E7C9
:104D080038B50546002945D051F8043C0C1F002B46
:104D1800B8BFE41800F0ACF81F4A1368104633B95E
:104D2800636014602846BDE8384000F0A2B8A3428A
:104D38000CD921686218934204BF1A685B686360E3
:104D480004BF521822600460ECE713465A680AB19F
:104D5800A242FAD919685818A0420BD12068014418
:104D6800581882421960DDD1106852685A600144AF
:104D78001960D7E702D90C232B60D3E720682118E4
:104D88008A4204BF11685268626004BF0918216032
:104D98005C60C7E738BD00BFB400002070B5CD1C0B
:104DA80025F0030508350C2D38BF0C25002D0646C7
:104DB80001DBA94203D90C233360002070BD00F049
:104DC80057F8214A1468214691B9204C23681BB929
:104DD800304600F03DF820602946304600F038F8AB
:104DE800431C24D10C233360304600F042F8E4E73A
:104DF8000B685B1B18D40B2B0FD90B60CD50CC184C
:104E0800304600F036F804F10B00231D20F00700AF
:104E1800C31AD3D05A42E250D0E78C424B6816BF2F
:104E2800636013600C46EBE70C464968CCE7C41C8A
:104E380024F00304A04205D0211A304600F008F8F7
:104E48000130CFD02560DBE7B4000020B800002097
:104E580038B5064C002305460846236000F00AF8DA
:104E6800431C02D1236803B12B6038BD940800208D
:104E780070477047044A05491368002B08BF0B4662
:104E88001844106018467047BC000020980800209D
:104E9800F8B500BFF8BC08BC9E467047F8B500BF1F
:084EA800F8BC08BC9E467047EF
:104EB00048656C6C6F576F726C640D0A00000000DF
:104EC00000000000000000000102030406070809BA
:0C4ED00000000000010203044344430002
:084EDC001CB3FF7F0100000080
:044EE400AD01000814
:044EE8008901000834
:104EEC0001000000100000000024F400D84E00085F
:104EFC0002000000054900089D4800087B48000896
:104F0C00854B0008434800080000000030000020DA
:104F1C000000000000000000000000000000000085
:104F2C000000000000000000000000000000000075
:104F3C000000000000000000000000000000000065
:104F4C000000000000000000000000000000000055
:104F5C000000000000000000000000000000000045
:104F6C000000000000000000000000000000000035
:0400000508004C3D66
:00000001FF
